:020000040800F2
:100000000020002015570008995600089B5600084C
:1000100000000000000000000000000000000000E0
:10002000000000000000000000000000A5490008DA
:100030000000000000000000114A00089D56000862
:100040006557000800000000655700086557000864
:100050006557000865570008655700086557000890
:100060000000000065570008655700086557000844
:1000700065570008A55600086557000800000000F5
:100080006557000865570008000000006557000824
:100090006557000865570008655700086557000850
:1000A0006557000865570008655700086557000840
:1000B000655700080000000000000000000000007C
:1000C00010B5064C2378002B07D1054B002B02D02E
:1000D000044800E000BF0123237010BDF0010020A0
:1000E000000000004C730008084B10B5002B03D033
:1000F0000749084800E000BF07480368002B00D10B
:1001000010BD064B002BFBD09847F9E7000000001C
:10011000F40100204C730008F001002000000000F2
:10012000002243088B4274D303098B425FD3030A36
:100130008B4244D3030B8B4228D3030C8B420DD349
:10014000FF22090212BA030C8B4202D312120902D7
:1001500065D0030B8B4219D300E0090AC30B8B4215
:1001600001D3CB03C01A5241830B8B4201D38B03C3
:10017000C01A5241430B8B4201D34B03C01A524168
:10018000030B8B4201D30B03C01A5241C30A8B42AB
:1001900001D3CB02C01A5241830A8B4201D38B0296
:1001A000C01A5241430A8B4201D34B02C01A52413A
:1001B000030A8B4201D30B02C01A5241CDD2C309AC
:1001C0008B4201D3CB01C01A524183098B4201D328
:1001D0008B01C01A524143098B4201D34B01C01A13
:1001E000524103098B4201D30B01C01A5241C3088B
:1001F0008B4201D3CB00C01A524183088B4201D3FA
:100200008B00C01A524143088B4201D34B00C01AE5
:100210005241411A00D20146524110467047FFE751
:1002200001B5002000F006F802BDC0460029F7D055
:1002300076E770477047C046F8B557464E46454684
:10024000DE46E0B54702460088467F0A360EC40FF8
:10025000002E47D0FF2E24D0FB008027FF041F4331
:10026000002399469A467F3E43465D025800DB0FC5
:100270006D0A000E984643D0FF283BD0EB00802546
:100280000022ED041D437F383618731C41469B46FF
:100290004B46614013430F2B64D875489B00C358ED
:1002A0009F46002F42D108239946063BFF269A46D7
:1002B000DAE74146022A28D0032A00D1CEE0012AFB
:1002C00000D0ACE0114000200022CCB24002D205A8
:1002D000400AE407104320433CBC90469946A2469E
:1002E000AB46F8BD002F15D104239946033B0026E9
:1002F0009A46B9E7FF200222002DC5D00322C3E7AA
:10030000002D19D100200122BEE70124FF220C405C
:100310000020DBE7380000F031FF7626431F9F40C6
:1003200000237642361A99469A469DE70C23994651
:10033000093BFF269A4697E7280000F01FFF431F5E
:100340009D4076235B42181A00229DE780200024FE
:10035000C003FF22BAE73D005246ABE73D00210053
:100360005246A7E73B0C9C462A04120C2B0C1400A7
:10037000604665463F043F0C7C4342435D437B43FC
:10038000270C9B18FF18BA4203D980235B029C46B6
:10039000654424043A04240C121993015C1EA34101
:1003A0003F0C920E7D191A43AD0115432B0104D564
:1003B00001235E466A081D40154332007F32002A41
:1003C00025DD6B0704D00F232B40042B00D0043510
:1003D0002B0103D53200274B80321D40FE2A94DCCE
:1003E0000124A801400AD2B20C406FE78020C0036C
:1003F000074207D0054205D128434002400A44463F
:10040000FF2263E738434002400AFF225EE70124EF
:10041000A31A1B2B05DD0C400022002056E75E4688
:10042000CBE72A002020DA40C31A9D402B005D1E36
:10043000AB4113435A0704D00F221A40042A00D0BC
:1004400004335A0104D5012401220C4000203DE769
:1004500001249B01580A0C40002237E78020012428
:10046000C00328434002400A0C40FF222EE7C0464A
:10047000DC9B0008FFFFFFF741024300C20F490A5F
:100480001B0E00207E2B0DDD9D2B0CDC802000043C
:100490000143952B0ADC9620C31AD9404842002A12
:1004A00000D108007047034BD018FBE7963B9940FA
:1004B000F4E7C046FFFFFF7FF0B557464546DE46EE
:1004C0004E46E0B50C0398464E00230B87B007005C
:1004D00092469B46760DCD0F002E6BD06D4B9E4203
:1004E00035D080245B46420F2404DB0014431C43B8
:1004F000C3009946684BA3469C46002300276644E8
:10050000029343461C035A00DB0F5046240B520D46
:10051000984600D176E05F4B9A426DD08023410F20
:100520001B040B435C49E4008C461C43C3000020C1
:1005300062444146B6186940721C019194460743D3
:100540000F2F00D9B0E0554ABF00D25997465B46FD
:100550000343994600D087E000239B4602330827D7
:100560000293CEE742460192022867D0032800D1C9
:100570000EE2012800D062E1002300240022994607
:1005800001990140CDB2002112030B0D120B1B0586
:100590001343434A240513401C436400ED076408D9
:1005A0002C434846210007B03CBC90469946A246E1
:1005B000AB46F0BD034399464FD05B46002B00D1BC
:1005C00089E1584600F0DAFD03000B3B1C2B00DDEF
:1005D0007AE11D22D31A3A0001005C46DA4008395C
:1005E0008C4013008F4023439B46B94600232D4E79
:1005F0000027361A029384E7534623432AD1002466
:10060000022096E75346234320D0002C00D157E127
:10061000200000F0B3FD03000B3B1C2B00DD49E183
:100620001D21CB1A51460200D9405346083A944046
:1006300093400C431B4A121A00207AE70125019BC4
:10064000144C1D400023002299469CE70024002200
:1006500001206EE7534603206BE700239B460133DE
:100660000427002602934CE7032381460C270293BC
:1006700047E780220023002512039946054C82E7B4
:100680005C464B4602986FE75C464B4601950298E4
:100690006AE7C046FF07000001FCFFFF1C9C000842
:1006A000FFFF0F800DFCFFFF4A464946170C1A0C4E
:1006B0001B041B0C08041900000C4143150088465C
:1006C00019007D4379430395894629001500454368
:1006D0004D44029545462D0CAA46029D5544A94518
:1006E00006D98A46802149028946CA445146039167
:1006F000290C0491414609042D04090C884629005F
:10070000250C24044144240C0591210041438846D2
:10071000210079438A466843414650448146080C8B
:1007200048446F43824503D98021490289464F449A
:10073000010C894639004944029141460F0404994D
:100740003F0C88460004C019804441460491594634
:100750000F0C0904090C884659438A463900514355
:10076000894641464A435146090C8B467B43D21881
:100770005A44934203D980235B029B46D944514695
:100780000904090C8A46414661437C43130C120458
:100790004B445244A1468A463C0041466C434D437B
:1007A00051464D440F0C7D19A94503D980214902BA
:1007B00088464444049F0399B84641448B46834588
:1007C000804141428846514608042F04000C3F18DE
:1007D0005846029910188946904292414F44BA46B1
:1007E000524299469346C244D144CB448F42BF41C2
:1007F000C245894199459B41934592417F42494277
:100800002D0C52420F435B4213437F19FF185B4686
:100810003C19DB0D059A64021C43430213435D1E21
:10082000AB415A46C00D034352021343E20156D571
:1008300001205A0803401343E207134364085A484F
:10084000604400284DDD5A0709D00F221A40042ABF
:1008500005D01A1D9A429B415B42E4181300E20145
:1008600004D58020514AC00014406044504A904250
:1008700000DDE3E60125DB0862071A436402019B01
:100880009146220B4405640D1D407CE680225946AA
:100890001203114208D0144206D122431203120B54
:1008A00045469946434C6EE65B461A431203120BCB
:1008B000404C68E603005446283B9C400023B9E6C0
:1008C00000F05CFC2030A6E60300283B9F4000239C
:1008D000BB4699468AE600F051FC203074E6B446E7
:1008E000ADE701252A1A382A06DD019B00241D40A8
:1008F00000230022994646E61F2A21DC20252000FD
:10090000AD1A1E00AB40A840D6405D1EAB4130433F
:100910001843D440430709D00F230340042B05D0CC
:100920000300181D98429B415B42E418230221D525
:100930000125019B01241D4000230022994622E647
:100940001F2521006D42281AC1400800202A1DD011
:100950005F35AA1A944023435C1EA3410725034335
:100960001D400022002D09D00F2200241A4018003B
:10097000042AD6D1030065076402220BDB082B434F
:1009800001259946019B00241D40FCE50024E2E777
:10099000802201251203224301991203120B0D40FC
:1009A0009946044CEFE5C046FF030000FFFFFFFE41
:1009B000FE070000FF070000F0B54646D6464F464A
:1009C0000C03C0B5CD0F4E00610A440F0C43C100AB
:1009D0005800400D84468A460F001903500F490AFB
:1009E0000143C648760DA846DB0FD200844500D1EE
:1009F000D8E001204340AB4200D1A6E06046351A62
:100A0000002D00DC05E1002810D10B00134300D1BC
:100A1000D7E06B1E002B00D04BE153469F1ABA451E
:100A20008041641A4042241A01261EE0B34B9E42C4
:100A300048D080231B041943382D00DD19E11F2DF8
:100A400000DD4CE120230F005B1B10009A409F400B
:100A5000E840531E9A41E940074317435346DF1BC2
:100A6000611ABA45A44164420C1B230200D4C5E0BC
:100A70006402650A002D00D1F6E0280000F07EFB3C
:100A80000300083B1F2B00DDE9E020223C00D21AC6
:100A90009D40D4409F4025439E4200DDDBE09E1BED
:100AA000731C1F2B00DD0AE120223800D21A290016
:100AB00097402C009140D8407A1E9741DC40002698
:100AC00001430F437B0709D00F233B40042B05D084
:100AD0003B1DBB42BF417F42E4191F00230225D5C5
:100AE000864B01369E4200D1AFE0854B01251C406C
:100AF00043466207FF08640276051743240B760D10
:100B00001D4000212403230B0C0D7E4A24051C43A9
:100B10001440330523435B00ED075B082B4338008B
:100B200019001CBC90469946A246F0BD01254346DB
:100B30006207FF081743E4081D40704B9E4236D001
:100B400024037605240B760DDBE76346F31A002BAE
:100B500000DC94E06046002835D068488642B1D079
:100B600080273F043943382B00DCFDE00A4317009F
:100B700000217A1E97415744574580410919444244
:100B80000C1923023AD55D4B01369E4200D14BE150
:100B900001225B4B1C407B0817401F43E2071743B1
:100BA00064088FE70800104300D024E721E7230002
:100BB0003B4300D1B9E18022120314432403240BE8
:100BC0009FE72E007EE70800104300D1CAE0581EC0
:100BD0008446002800D0E7E0524452458041641822
:100BE0004042241817000126230207D50226CFE72A
:100BF00064462C4300D1B3E12C0067467B0700D04C
:100C000062E76307FF081F4301254346E4081D40D0
:100C100093E7002D78D1751C6D056D0D012D00DC5D
:100C2000F2E05046801A8245BF41651A7F42ED1BB3
:100C30008446280200D48CE05046171ABA429241EA
:100C40000C1B5542651B984614E7012543460024BA
:100C50001D40002755E72A4CF61A2C4032E73D008C
:100C600028388540002717E7380000F087FA203041
:100C700006E70A43170000217A1E9741EEE6002B93
:100C800000D0E5E0731C9C465B055B0D012B00DC8E
:100C90009FE01A4B9C4500D1C5E05244524580412B
:100CA000641840422418E707520817436408664650
:100CB00008E71248854200D185E01D00BCE6290006
:100CC0001F3EF140202B00D17FE04022D31A9D40EF
:100CD0002F437D1EAF4100240F4300268EE72B00DB
:100CE0000F00203BDF40202D71D040235D1BA94029
:100CF0000A43511E8A4100211743AFE6FF07000057
:100D0000FFFF7FFFFFFF0F80002E3ED0B34EB445A4
:100D100045D0802636046D423443382D00DDA8E0EE
:100D20001F2D00DD1FE1202627005046761BB7400F
:100D3000E84007435046B040461EB041EC403843BF
:100D4000171ABA4292410C1B5242A41A66469846A0
:100D50008BE6644667462C4300D08BE600250026D0
:100D60000027EAE61E00ADE61F2B60DC2027F81AFC
:100D70000F00844687401000D840074360468240F9
:100D8000501E8241D9401743F5E6260050460643DF
:100D900005D0ED43002DD3D0904EB445BDD10C000D
:100DA0001700664698468DE68C4883420BD0634612
:100DB000D9E6002D00D096E00800104300D1E2E013
:100DC0000C0017009846854E7CE6002580E7002140
:100DD0008EE7230050460343002E00D0A8E0002BEE
:100DE00000D1DEE00B00134300D16BE652445245C4
:100DF00080416418404224181700230200D4FDE605
:100E0000774B66461C405DE6250050460543002EA4
:100E1000CFD1002D4FD10C00144300D1A0E00C0025
:100E2000170098464EE666460024002785E61F0018
:100E30000800203FF8400700202B00D18EE0402022
:100E4000C31A99400A43511E8A410021174392E672
:100E5000002E14D126005046064362D0DB43002BFF
:100E60005CD187189742924164185242A418664692
:100E700087E650462043441EA041002460E7574EB9
:100E8000B4454ED0802636045B423443382B00DD17
:100E90007FE01F2B00DD8BE0202627005046F61A4E
:100EA000B740D84007435046B040461EB0410743C4
:100EB000DC40BF18D6E70D00154300D102E65046CE
:100EC000801A8245BF41651A7F42ED1B8446280285
:100ED00000D48DE65046171ABA4292410C1B52427A
:100EE000A41A9846EEE50D00154300D16BE7504675
:100EF0006707C00807438020E4080003044207D0C6
:100F0000CD08054204D12C009846D70849070F4365
:100F10007B0FE4001C43FF00304ED3E52F4EB44559
:100F2000B4D10C0017006646CCE500270024E8E5A4
:100F3000002B39D00B00134300D144E7C0086707EA
:100F400007438020E40800030442E1D0CB080342B9
:100F5000DED1D70849070F431C00D9E7002171E70C
:100F600000250027E9E52E002700203EF740202D30
:100F70002FD04026751BAC4050462043441EA04154
:100F800000243843DCE6802400252403134E002788
:100F9000D3E5504620430700781E87410024BF1840
:100FA00060E70C0017008DE50C0017000B4E89E57B
:100FB0001E002700203EF740202B0CD04026F31ABD
:100FC0009C4050462043441EA04107430024BF18C4
:100FD00048E70024D0E70024F3E7C046FF070000FD
:100FE000FFFF7FFF70B5002830D0C317C4185C40E6
:100FF000C50F200000F0C2F8174B184A1B1AD21A6E
:101000001F2A18DD164AD21A9440002224035B05D9
:10101000240B5B0D0021100024030A0D240B120584
:101020002243104C1B05224013435B00ED075B0875
:101030002B43190070BD210091400A000B21081AB2
:10104000C4405B052403240B5B0DE3E7002500236C
:1010500000240022DEE7C0461E0400003304000026
:1010600013040000FFFF0F80F0B54C00640D0B036C
:10107000621C450F5B0A52052B43C90FC500520D78
:10108000012A28DD3A4AA618FE2E1BDC002E3EDD82
:1010900080010200501E82416D0F2A43DB00134382
:1010A0005A0704D00F221A40042A00D004338022A9
:1010B000D2041A405AD00136FF2E03D09B015B0A9E
:1010C000F4B201E0FF2400235802E405400AC907F6
:1010D00020430843F0BD002C07D01D43F2D08020F0
:1010E000DB0080040343FF26DAE72B4303D005230C
:1010F000DB08FF2C03D05B025B0AE4B2E4E7002BC1
:1011000032D08020C00303435B025B0ADCE732007D
:10111000173214DB80221E2712041343BF1B1F2F1C
:101120000FDC144A944664442A00A5402E00A340D4
:10113000751EAE41FA40334313430026B0E7002446
:10114000D5E702225242961B1A00F240202F09D006
:10115000094884466444A3402B435D1EAB410026EE
:1011600013439DE70023F7E70023ADE73400BFE713
:1011700080FCFFFF82FCFFFFA2FCFFFF1C2101237C
:101180001B04984201D3000C10391B0A984201D36A
:10119000000A08391B09984201D30009043902A248
:1011A000105C40187047C0460403020201010101AF
:1011B00000000000000000000023C25C0133002A90
:1011C000FBD1581E7047000002B47146490849001F
:1011D000095C49008E4402BC7047C04603460B437D
:1011E0007FD4002243088B4274D303098B425FD320
:1011F000030A8B4244D3030B8B4228D3030C8B424C
:101200000DD3FF22090212BA030C8B4202D3121231
:10121000090265D0030B8B4219D300E0090AC30B06
:101220008B4201D3CB03C01A5241830B8B4201D3B3
:101230008B03C01A5241430B8B4201D34B03C01A9C
:101240005241030B8B4201D30B03C01A5241C30A14
:101250008B4201D3CB02C01A5241830A8B4201D385
:101260008B02C01A5241430A8B4201D34B02C01A6F
:101270005241030A8B4201D30B02C01A5241CDD214
:10128000C3098B4201D3CB01C01A524183098B425F
:1012900001D38B01C01A524143098B4201D34B0148
:1012A000C01A524103098B4201D30B01C01A5241AB
:1012B000C3088B4201D3CB00C01A524183088B4232
:1012C00001D38B00C01A524143088B4201D34B001B
:1012D000C01A5241411A00D201465241104670478D
:1012E0005DE0CA0F00D04942031000D34042534092
:1012F00000229C4603098B422DD3030A8B4212D352
:10130000FC22890112BA030A8B420CD38901921183
:101310008B4208D3890192118B4204D389013AD0C0
:10132000921100E08909C3098B4201D3CB01C01A95
:10133000524183098B4201D38B01C01A52414309A8
:101340008B4201D34B01C01A524103098B4201D396
:101350000B01C01A5241C3088B4201D3CB00C01A03
:10136000524183088B4201D38B00C01A5241D9D21B
:1013700043088B4201D34B00C01A5241411A00D29C
:101380000146634652415B10104601D34042002B98
:1013900000D54942704763465B1000D3404201B517
:1013A0000020FEF747FF02BD0029F8D016E770477E
:1013B0008446101C62468C46191C634600E0C046F9
:1013C0001FB500F015FF002801D40021C8421FBD41
:1013D00010B500F06FFE4042013010BD10B500F0B6
:1013E00007FF002801DB002010BD012010BDC04612
:1013F00010B500F0FDFE002801DD002010BD012029
:1014000010BDC04610B500F08FFE002801DC0020A2
:1014100010BD012010BDC04610B500F085FE0028AB
:1014200001DA002010BD012010BDC046F8B54546C8
:10143000DE4657464E460C03E0B54E00C90F8846BF
:101440000D00610A440F0C43C70019035800DB0F5D
:101450009B464B0A510F0B43760D400D1900D200ED
:10146000D84500D1AEE0351A002D00DCF6E00028AA
:101470000FD1134300D1DBE06B1E002B00D037E10E
:10148000BA1A9742BF41641A7F42E41B0126170033
:1014900024E0C64B9E424DD080231B041943382DB7
:1014A00000DD07E11F2D00DD38E12020431B9A46B7
:1014B0000B0050468340994613004846EB401843C2
:1014C000030050468240501E8241E9401A43BA1A36
:1014D000611A9742A441170064420C1B230262D593
:1014E0006402650A002D00D1DFE02800FFF746FE08
:1014F0000300083B1F2B00DDD2E020223C00D21A63
:101500009D40D4409F4025439E4200DDC4E09E1B89
:10151000731C1F2B00DDF1E0202238002900D21AB5
:10152000D840914097402C000143781E8741DC4011
:1015300000260F437B0709D00F233B40042B05D027
:101540003B1DBB42BF417F42E4191F0023022CD543
:10155000964B01369E4200D19AE04546944BFF08D7
:101560001C406007760564020743240B760D0021BA
:101570002403230B0C0D8F4A24051C431440330510
:1015800023435B00ED075B082B43380019003CBC8C
:1015900090469946A246AB46F8BD6446044300D146
:1015A00011E2040067467B07C6D145466007FF0885
:1015B0000743E4087D4B9E4230D024037605240B7C
:1015C000760DD4E7331A9A46002B78DD002831D007
:1015D00076488642AED08020000401435346382B23
:1015E00000DCE9E00A43511E8A410021D219BA42C7
:1015F000BF4109197C4217000C192302D3D56B4B4C
:1016000001369E4200D13AE10120694B1C407B0823
:1016100007401F43E007074364088BE723003B4371
:1016200000D1CBE18022120314432403240B9EE754
:101630002E007FE70800104300D1B4E0581E0028B8
:1016400000D0DEE0BA18BA429B4164185B42E4184D
:10165000170001262302A6D50226D5E7002D6ED15C
:10166000701C4005400D012800DCF9E0B81A8446E2
:1016700087428041E51A40422D1A280200D489E0B1
:10168000D71BBA4292411C1B5242A51AD84629E7E1
:101690004546002400276AE7454CF61A2C4049E7E6
:1016A0003D002838854000272EE73800FFF766FD0B
:1016B00020301DE70A43511E8A41002107E7002B15
:1016C00000D0F3E0701C43055B0D012B00DCADE0A6
:1016D000364B984200D1D1E0BA18BA42BF416418E3
:1016E0007F42E419E707520817436408060021E720
:1016F0002E48854200D193E01D00D0E629001F3E10
:10170000F140202B00D18DE04022D31A9D402F4381
:101710007D1EAF4100240F43002644E72B00080044
:10172000203BD8400300202D00D17DE04020451B08
:10173000A9400A43511E8A4100211A43C7E6002EE0
:1017400050D01A4EB04257D080266B42994636048C
:1017500034434B46382B00DDD6E01F2B00DD35E14E
:101760002026F51A2600AE40B2463E00DE40AC46CA
:10177000350056462E436546AF407D1EAF41DC40E6
:101780003743D71BBA4292410C1B5242A41A06009F
:10179000D846A3E6644667462C4300D0A2E600255F
:1017A0000026002706E71E00C4E6C046FF0700002B
:1017B000FFFF7FFFFFFF0F801F2B63DC2020C31A7A
:1017C000080098409C46834653461000D8400300CA
:1017D0005846184363469A40531E9A415346024363
:1017E000D94003E726003E4306D0EB439946002B41
:1017F000C7D0944EB042ACD10C0017000600D846BA
:1018000098E6904B9A450BD08246E7E6002800D038
:101810009EE01800104300D1E9E01C001700D846F4
:10182000884E87E6002572E7002182E723003B43CC
:10183000002E00D0ABE0002B00D1E7E00B001343FB
:1018400000D177E6BA18BA42BF4164187F42E41962
:10185000230200D4F2E07C4B17001C40060069E62E
:1018600020003843002ED1D100285BD11C00144346
:1018700000D1A8E01C001700D8465BE60600002453
:10188000002797E650460B002038C3409946534640
:10189000202B00D195E0402350461B1A99400A4363
:1018A000511E8A414B4600211A439FE6002E30D13B
:1018B00026003E4367D0DB439A46002B1CD0614E86
:1018C000B04260D05346382B00DD96E01F2B00DD80
:1018D0009FE02026F31A26009E409C46B3465346BE
:1018E0003E00DE4033005E461E4363469F407B1E43
:1018F0009F415346DC403743BF18974292416418DA
:101900005242A418060078E627437C1EA741002413
:1019100037E74C4EB04236D080265B4236049A46BA
:101920003443CFE71800104300D103E6B81A8446C9
:101930006745AD41E01A6D42401B050200D42CE61C
:10194000D71BBA4292411C1B5242A41AD846F1E559
:101950001800104300D163E7F808670707438020A9
:10196000E4080003044208D0DD08054205D1D2088E
:10197000590711430F002C00D8467B0FE4001C438D
:10198000FF00304ED6E50C0017000600D2E5002B14
:1019900038D00B00134300D142E7F808670707432C
:1019A0008020E40800030442E7D0CB080342E4D1DE
:1019B000D208490711430F001C00DEE7002700246E
:1019C000D5E500216BE700250027F3E54E4625000D
:1019D000203EF5404B462E00202B2DD04025ED1A01
:1019E000AC4027437C1EA74100243743C9E680242E
:1019F00000252403134E0027DCE527437C1EA74166
:101A0000002479E70C0017000E4E93E50C00170038
:101A100090E556462300203EF34099465346202B3E
:101A20000ED0402356469B1B9C4027437C1EA7415B
:101A30004B4600241F435FE70024D2E71700B2E5BE
:101A40000024F2E7FF070000FFFF7FFFF0B55746D5
:101A50004546DE464E46E0B54C000E0387B0834651
:101A600092461D008046360B640DCF0F002C4FD0E0
:101A70006F4B9C4235D08023420F1B04F60013436A
:101A800033439946C30098466A4B00269C46002380
:101A9000644403932B031B0B9B466B00ED0F5046D6
:101AA0005B0D01955ED0624A934253D05A46D100F5
:101AB0008022400F120402430A4393465246D1004B
:101AC0005C4A944600226344380068408446029091
:101AD000E41A16430F2E00D9B4E0574BB6009B59B9
:101AE0009F460300334399466CD100239846023346
:101AF00008260393CEE7CB464146039A0197022A74
:101B000065D1019B4A4C9C460023002298466BE01D
:101B10000300334399464ED0002E00D1BCE1300083
:101B2000FFF72CFB03000B3B1C2B00DDACE11D225F
:101B3000D31A5A460100DA4008398E401300334365
:101B400099465B468B40984600233C4C0026241A5D
:101B500003939FE751465A46114329D100229346E9
:101B60000232B1E7594601431ED05B46002B00D13B
:101B70009EE15846FFF702FB03000B3B1C2B00DDE8
:101B80008FE102005946083A91408B461D21CB1A3D
:101B90005146D9400B0059460B4351469B46914054
:101BA000264B00221B1A8FE7002301229B468BE75E
:101BB0005146032288E70023984601330426002477
:101BC000039367E70323B14603930C2662E7032AD6
:101BD00000D15CE2019B012A00D0E4E113409C4665
:101BE000002300240022984600211203130B0A0D43
:101BF00012051A432305124C404622401343624605
:101C00005B00D2075B081343190007B03CBC904649
:101C10009946A246AB46F0BD002380229C461203A3
:101C20009846034CE0E70023014C00229846DBE78E
:101C3000FF07000001FCFFFF5C9C00080DFCFFFF9C
:101C4000FFFF0F80D94500D939E100D134E10023ED
:101C500046464D469A46013C5B460A0E1B021A4315
:101C60000B02170C039313041B0C39002800904639
:101C70000193FEF755FA0200019B83465A43280060
:101C800039009146FEF7D2FA350C09040D43A945F7
:101C90000DD95B464544013BA84500D93AE1A94529
:101CA00000D837E102235B429C464544E3444B465F
:101CB000EB1A390018000493FEF732FA019B050075
:101CC0004343390004989946FEF7B0FA33040904F7
:101CD0001B0C0B43994509D943446A1E984500D90A
:101CE0001AE1994500D817E1023D43444A469B1A40
:101CF0005A4612042A4303999346100C0A0C914643
:101D000009045A46090C4E460D001204120C4543B4
:101D1000059151437243704352190E0CB21895420B
:101D200003D980256D02AC466044150C09041204E9
:101D3000090C28185218834200D2CEE000D1C8E026
:101D40001D1A53469E1AB24592415242AB1A9A4608
:101D5000984500D117E139001800FEF7E1F9019B21
:101D600005004343390050460493FEF75FFA049898
:101D70000B04310C1943884209D941446B1E884534
:101D800000D907E1884200D804E1023D4144049BA8
:101D9000CB1A180039000493FEF7C2F9019B824662
:101DA0004343390004980193FEF740FA01980B046D
:101DB0003104090C194388420DD953464144013B73
:101DC000884500D9E8E0884200D8E5E002235B427C
:101DD0009C464144E244019B2D04CE1A51462943BE
:101DE000059D4F462A000B04080C1B0C5A43454323
:101DF0007B4378435B19170CFB189D4203D9802560
:101E00006D02AC4660441D0C12041B04120C281811
:101E10009B18864200D293E000D18EE00123194343
:101E2000A04BE318002B00DC99E04A0700D09EE0AD
:101E30005A46D20106D55A469B4B1A4080239346F8
:101E4000DB00E318994A934268DD0123029A984C1B
:101E50001A400023944698460022C5E680224B464D
:101E6000120313420AD05B46134206D11A431203EF
:101E7000120BAC4688468E4CB6E64B461A4312030C
:101E8000120BBC468A4CAFE603005A46283B9A40E8
:101E900000239146984657E65846FFF76FF92030E1
:101EA00040E603005246283B9A400021934677E6DD
:101EB000FFF764F920305FE6884500D2C7E64B465D
:101EC000DE075D0843465B081E434346DB079A4630
:101ED000C2E60025924500D333E7039E5946B44637
:101EE000E244B245AD416D424544EB180139984595
:101EF00007D2984200D97FE000D1BCE01D1A8B4682
:101F00001FE79845FAD1039D5545F2D943468B46C4
:101F10001D1A16E79B46CAE61500E7E65A46C908A9
:101F200052070A435B0590465C0D5A46012302990D
:101F300052021940120B8C4656E6002B00D16FE777
:101F400046444A1EB04529D91100864200D065E7B3
:101F5000039A934200D061E762E7012149420120E0
:101F6000C21A382A21DD029B03409C4638E60F2224
:101F70000A40042A00D15BE70A00111D91429241F8
:101F80005242934454E7474BE318002BE5DD01220E
:101F90005242F2E71D00FAE69A461CE7B04239D8F1
:101FA0006ED011003AE702933AE71F2A3CDC202367
:101FB0009B1A0C005846994098404B1E99415B462D
:101FC000D440D340204308431A00430709D00F23CD
:101FD0000340042B05D00100081D88429B415B4251
:101FE000D21813023AD50123029A01241A40002381
:101FF000944698460022F7E5022149428C46039D0B
:10200000E344AC46E244AA45AD416D424544ED1877
:102010002D1A96E68A1E03994D008D428941494248
:102020004144761803958FE71F204042C31A584653
:10203000D8400300202A28D040205D46821A9540CF
:1020400029434A1E91411943072300220B4009D01E
:102050000F2300220B400800042BBDD101005307C1
:102060005202120BC9081943012388460299002421
:1020700019408C46B8E55245BED88B46002560E62F
:10208000039D9D42C6D3110062E70025D8E7802258
:102090005B4612031A43019B1203120B9C468846AF
:1020A000034CA1E5FF030000FFFFFFFEFE07000059
:1020B000FF070000F0B54F464646D6465C00C0B567
:1020C0001F03DB0F9A46174B0E034D0084468046D4
:1020D000360B6D0DC90F91463F0B640D01209D42DB
:1020E00008D09C4201D0A5420BD01CBC904699461A
:1020F000A246F0BD63463343F7D1AC42F5D13A4333
:10210000F3D10120BE42F0D1C845EED1514507D0F0
:10211000002DEAD163461E433000461EB041E4E77D
:102120000020E2E7FF070000F0B54546DE465746CF
:102130004E46E0B51F033D0B2C4F0E034C00AB4643
:102140005D008446360B640DC90F90466D0DDB0FA4
:10215000BC422AD0254FBD422DD0002C0FD1304398
:102160000700814678427841C0B2002D17D15F4602
:102170003A4314D14B460020002B0AD006E0002D34
:1021800002D15846024301D0994218D04842012159
:1021900008433CBC90469946A246AB46F0BD002899
:1021A000F2D00120013B1843F3E737000743D1D0B9
:1021B00002204042EDE75F461743CED0F8E7AC423D
:1021C000E4DC03DA481E01210843E2E75E45DDD87E
:1021D00006D000205E45DCD20123481E1843D8E714
:1021E000C445D3D80020C445F6D3D2E7FF0700008A
:1021F000F0B54E464546DE4657465C00E0B51F0347
:10220000DB0F99462A4B0E034D00C90F8446360B4F
:102210006D0D8B4690463F0B640D9D4220D0244BA4
:102220009C4222D0002D12D1304343424341DBB2C5
:10223000002C1FD0002B0CD04B460120013B034348
:1022400018003CBC90469946A246AB46F0BD002C17
:1022500016D0CB4517D05B46594201230B43EFE71D
:10226000310002230143EBD1D9E7390002231143A6
:10227000E6D1D7E73A43DDD100230028E0D0EAE7F2
:102280003A43E6D1E7E7A542E5DC05DBBE42E2D80A
:1022900007D00023BE42D3D25946012301390B4354
:1022A000CEE7C445D7D80023C445F5D3C8E7C04618
:1022B000FF07000070B50E4E0D031C0349005B00C4
:1022C0002D0B490D240B5B0DB14204D008490020B1
:1022D0008B4208D070BD05430120002DFAD104497E
:1022E00000208B42F6D114432000441EA041F1E7A8
:1022F000FF07000030B5134D0A034B00120B5B0DB6
:10230000C90F0024AB4210DD0F4CA3420FDC802428
:102310000E4D64032243ED1A1F2D0BDD0C48C31A2A
:10232000DA405442002900D11400200030BD094B8E
:10233000CC18FAE7084CE840A44663449A400243AC
:10234000EFE7C046FE0300001D0400003304000058
:1023500013040000FFFFFF7FEDFBFFFF10B5041E1D
:1023600028D0FEF70BFF154B154A1B1AD21A1F2A4D
:1023700015DD144AD21A9440002224035B05240B75
:102380005B0D0021100024030A0D240B12052243CB
:102390000D4C1B05224013435B00590810BD210062
:1023A00091400A000B21081AC4405B052403240B4A
:1023B0005B0DE6E7002300240022E2E71E04000094
:1023C0003304000013040000FFFF0F8010B5064A1D
:1023D000136810210B431360002003F021F903F070
:1023E00019F8002010BDC04600200240024A1368C0
:1023F000013313607047C04664110020014B186818
:102400007047C0466411002070B5040003689A68E4
:10241000520721D59A68520706D59A68920703D4C5
:102420009A6810210A439A60FFF7E8FF05002368C5
:102430009B685B070ED5FFF7E1FF401B0228F6D92A
:10244000636C102213436364A36C0F3A1343A364B9
:10245000012002E0002000E0002070BD70B5040003
:102460000268916803230B40012B11D00023002B3D
:1024700039D0916805230B40012B15D0636C1022D5
:1024800013436364A36C0F3A1343A364012070BD2C
:102490001368DB0704D4D3681B0403D40023E6E7E6
:1024A0000123E4E70123E2E7936802210B439360F1
:1024B000236803221A60FFF7A1FF050023689B68C9
:1024C000DB070ED5FFF79AFF401B0228F6D9636C95
:1024D000102213436364A36C0F3A1343A3640120D7
:1024E000D5E70020D3E70020D1E7000030B583B066
:1024F0000400002301930268916803330B40012B11
:1025000011D00023002B42D19168224B194216D1E1
:10251000936801210B4393601F4B18681F49FDF717
:10252000FFFD019018E01368DB0704D4D3681B0497
:1025300003D40023E6E70123E4E70123E2E7636C29
:10254000102213436364A36C0F3A1343A364012066
:102550001EE0019B013B0193019B002BF9D1FFF78A
:102560004DFF050023681B68DB070ED4FFF746FF0D
:10257000401B0228F6D9636C102213436364A36CDA
:102580000F3A1343A364012002E0002000E0002082
:1025900003B030BD170000801C00002040420F0037
:1025A00070B5041E00D1B9E0436C002B00D180E06F
:1025B000636CDB0600D5ABE02268936804210B4016
:1025C00000D0A5E0616C564801400630FF30014361
:1025D0006164906803210140012970D00021002925
:1025E0000CD1D16818208143A0680143D1602168D3
:1025F0000A6992009208606802430A612168CA6809
:1026000048480240CA60A2699203E169C9030A43CB
:10261000206A41030A43616B01295CD08021490192
:102620000A43E1680A432169022956D01343226B09
:1026300052001343626A012A51D0A26AC221FF31BB
:102640008A4202D0E16A0A4313432168CA681A43E6
:10265000CA60A26B802149058A420DD0012A0BD0A5
:10266000022A09D0032A07D0042A05D0052A03D05C
:10267000062A01D0072A0AD120684169072291431E
:10268000416120684169A56B2A400A434261226882
:10269000D26825490A40934230D0636C122293439A
:1026A000023A13436364A36C0F3A1343A3640120FB
:1026B00033E083644022835402F0D6FE78E7116849
:1026C000C90704D4D168090403D4002187E7012194
:1026D00085E7012183E71900A2E70423A6E7002884
:1026E00003D1802252021343A7E7626C20210A43E0
:1026F0006264A26C1F390A43A2649EE70023A364AC
:10270000636C03229343023A13436364002004E0A2
:10271000636C102213436364012070BD0120FCE749
:10272000FDFEFFFF1902FEFFE7FF3F8310B5040027
:1027300003689B685B0701D5022010BD4023C35C82
:10274000012B1FD001224023C254C369012B17D093
:10275000FFF7CCFE0028F0D1636C0B4A1A408023AF
:102760005B00134363640023A3644022A3542368E3
:10277000243A1A602268936804210B439360DCE7D3
:102780000020E7E70220D8E7FEF0FFFF10B50400C5
:102790004023C35C012B01D1022010BD0122402344
:1027A000C254FFF731FE002803D000224023E25438
:1027B000F3E72000FFF752FE0028F6D1636C034ACE
:1027C00013400432FF3213436364EEE7FEFEFFFF63
:1027D000F8B504000E004569082D04D00368DB68D5
:1027E000DB0719D40C25FFF709FE070023681A68D8
:1027F0002A421AD1731CF9D0002E04D0FFF7FEFD37
:10280000C01B8642F2D2636C04221343636400222D
:102810004023E25403202DE0436C20221343436401
:1028200000224023C254012024E0616C80229200E7
:102830000A436264D968C0221201114213D1226A8C
:10284000002A10D11A6812070DD59A68520712D4BF
:102850005A680C218A435A60636C0C4A1340043254
:10286000FF3213436364A369002B0DD123680C224C
:102870001A600020F8BD636C202213436364A36CCC
:102880001F3A1343A364EEE70020F3E7FEFEFFFFC9
:102890000368186C7047000030B583B00400002353
:1028A00001934033C35C012B00D181E0012240231E
:1028B000C25403689A68520770D43E4A48689042EE
:1028C00053D09A6A01200D68A84002439A62A36B14
:1028D0008022520593421ED0012B1CD0022B1AD00D
:1028E000032B18D0042B16D0052B14D0062B12D096
:1028F000072B10D02268506907230340886898424C
:1029000009D05069072398435061206842698D6857
:102910002B40134343610B681A00103A012A01D976
:10292000002040E0244A1268102B09D08023DB03EA
:102930001343214A13600B68102B04D0002032E0AF
:1029400080231B04F4E71D4B18681D49FDF7E8FBC5
:10295000830018184300019302E0019B013B01939F
:10296000019B002BF9D100201DE09A6A01200D681F
:10297000A84082439A620B681A00103A012A01D9D2
:10298000002010E00C4A1268102B05D00D4B1340AC
:10299000094A1360002006E00B4BF8E7436C202245
:1029A00013434364012000224023E25403B030BDAE
:1029B0000220FBE701100000082701401C00002056
:1029C00040420F00FFFFBFFFFFFF7FFF70B50028F1
:1029D00011DB8308144DC0339B005C590322104067
:1029E000C000FC3216008640B44389010A40824090
:1029F00022435A5170BDC0B20F230340083B9B08CD
:102A000006339B00094A944663445D6803221040E4
:102A1000C000FF2422008240954389010C4084407D
:102A20002C435C60E6E7C04600E100E000ED00E01A
:102A30001F2318401E3B8340014A13607047C04665
:102A400000E100E001380A4B98420FD8094A506073
:102A50000948036A1B021B0AC02109060B430362D3
:102A60000023936007331360002070470120FCE7C8
:102A7000FFFFFF0010E000E000ED00E0042805D0BB
:102A8000054A136804218B4313607047024A136898
:102A900004210B431360F8E710E000E010B5041EBA
:102AA00029D0437F002B1ED002236377200000F043
:102AB00026F8002821D16379002B18D12368012240
:102AC00052421A612268936860218B4361690B430B
:102AD00093602268936880218B43A1690B439360C4
:102AE0000123637710BD037702F0E2FCDCE7236883
:102AF00022691A61E6E70120F4E70120F2E70020ED
:102B000070470000F0B5C64600B582B000237EE0F5
:102B1000DF080837BF003E5807251D40AD000F24D1
:102B2000AC40A6430C69AC40250035433D507EE0E7
:102B3000856864462540CE68BE403543856045685B
:102B40002C004546AC434D682E09012535409D407B
:102B50002C434460C46865462C408D68BD402C43BE
:102B6000C4604C68E40051D5434DAE69012426434E
:102B7000AE61AD692C400194019C9C08A51CAD0080
:102B80003E4EAE5903251D40AD000F27AF40BE435A
:102B90009027FF05B84265D0394FB84264D0394F0D
:102BA000B84263D0384FB8425AD00527AF403D00F5
:102BB00035430234A400314EA551344C2568D4432A
:102BC00026002E404F68FF0301D515432E002F4DE0
:102BD0002E606D682E0026404F68BF0301D5154357
:102BE0002E002A4D6E60AD682E0026404F68FF0211
:102BF00001D515432E00254DAE60ED682C404E6882
:102C0000B60201D52A431400204AD46001330A6871
:102C10001400DC402CD001249C40A0462240F5D07A
:102C20004D68022D00D173E7122D00D170E70668C0
:102C30005F0003252C00BC40E443A44626404C68BA
:102C40002540BD40354305604D686E1E012E00D8FD
:102C50006EE7112D00D16BE7122D00D07AE767E700
:102C60000327A3E70027A1E701279FE702279DE7A6
:102C700002B004BC9046F0BD0010024000000140CC
:102C80000004004800080048000C0048000401400F
:102C900003689A69920701D500229A6203689A69CB
:102CA000D20703D49A6901210A439A617047000050
:102CB00030B504686068064D28408905890D120406
:102CC00011430B43039A13430343636030BDC04673
:102CD000009800FC70B504000E00150003689B69A5
:102CE000DB0616D523689A69920614D4731CF9D0B2
:102CF000002E04D0FFF782FB401B8642F2D2202236
:102D00004123E25400232232A354023AA354032065
:102D100018E0002016E01022DA6123682025DD612A
:102D20002000FFF7B5FF2268536807490B40536046
:102D3000042363643D33E55400234222A354023A42
:102D4000A354012070BDC04600E800FE70B5040029
:102D50000D00160023689B699B071CD432002900D4
:102D60002000FFF7B7FF002817D16B1CF2D0002D11
:102D700004D0FFF743FB801B8542EBD2636C20221B
:102D8000134363644123E25400232232A354023AE2
:102D9000A354032000E0002070BD0120FCE7F8B53B
:102DA00005000F0016001C002B689B693A009A432F
:102DB00013005A425341B34213D1631CF4D0002C88
:102DC00005D0FFF71BFB069BC01A8442ECD22022E1
:102DD0004123EA5400232232AB54023AAB5403207D
:102DE00000E00020F8BD70B582B0040016001D00A0
:102DF000DAB280239B01009380235B04FFF758FF26
:102E0000079A06992000FFF7A1FF002807D0636CFE
:102E1000042B02D0032002B070BD0120FBE7012D7E
:102E20000ED02368320A9A62079A06992000FFF7AB
:102E30008DFF002815D0636C042B10D00320EAE727
:102E40002368F6B29E62079B0093069B00228021B6
:102E50002000FFF7A4FF0028DDD00320DBE70120DE
:102E6000D9E72368F6B29E62EDE770B505000C0065
:102E700016002B689B699B061AD43200210028009B
:102E8000FFF728FF002815D1002C04D0FFF7B6FA71
:102E9000801B8442EDD26B6C202213436B64412370
:102EA000EA5400232232AB54023AAB54032070BDE3
:102EB0000020FCE70120FAE770B504000D001600C1
:102EC00023689B695B072DD4320029002000FFF79F
:102ED00001FF002828D123689A69920611D4002D99
:102EE00004D0FFF78BFA801B8542E9D2636C202265
:102EF000134363644123E2540022013BE254032064
:102F000070BD2022DA6121684B68084803404B609D
:102F100000236364412162542232A354023AA35431
:102F20000120EDE70020EBE70120E9E700E800FEE3
:102F300010B5041E59D04123C35C002B43D024227A
:102F40004123E2542268136801218B4313602268F5
:102F5000274B61680B4013612268936825490B4039
:102F60009360E368012B34D0226884231B02A1689C
:102F70000B439360E368022B32D0226851681E4BEA
:102F80000B4353602268D3681A490B40D360216811
:102F9000236962691343A26912021343CB6022685A
:102FA000E369216A0B4313602268136801210B4314
:102FB0001360002363641F314122A1542363013253
:102FC000A354002010BD00224033C25402F086FA00
:102FD000B5E7226880231B02A1680B439360C9E711
:102FE0002368802212015A60C7E70120EAE7C04641
:102FF000FFFFFFF0FF7FFFFF00800002F0B585B00C
:103000000700039116001D004123C35C202B02D052
:10301000022005B0F0BD2033C35C012B01D102209A
:10302000F7E701224023C254FFF7E8F904000090BB
:1030300019230122802109023800FFF7B0FE002881
:1030400001D00320E5E721224123FA54113A01334C
:10305000FA5400237B647E627D857B637B8D9BB20B
:10306000FF2B0CD9FF233B8580239B0100938023FA
:103070005B04EF3203993800FFF71AFE20E07A8DE7
:1030800092B23A85D2B280239B01009380239B04A5
:1030900003993800FFF70CFE12E07B6C042B01D083
:1030A0000320B6E70120B4E77A8D92B23A85D2B216
:1030B0000023009380239B0403993800FFF7F8FD59
:1030C0007B8D9BB2002B33D022000A993800FFF78A
:1030D0003DFE0028E1D13A687B6A591C79621B7871
:1030E00093627B8D013B9BB27B853B8D013B9BB209
:1030F0003B85002BE4D17B8D9BB2002BE0D000946C
:103100000A9B002280213800FFF749FE00282DD1BC
:103110007B8D9BB2FF2BC7D9FF233B8500230093F8
:1031200080235B04FF2203993800FFF7C1FDC7E746
:1031300022000A993800FFF798FE002806D07B6C21
:10314000042B01D0032064E7012062E73B682022C2
:10315000DA6139684B68064C23404B604123FA54CE
:1031600000232232BB54023ABB5452E7032050E7FB
:1031700000E800FEF0B585B00700039116001D00C1
:103180004123C35C202B02D0022005B0F0BD2033C8
:10319000C35C012B01D10220F7E701224023C25476
:1031A000FFF72CF904000090192301228021090265
:1031B0003800FFF7F4FD002801D00320E5E72222C4
:1031C0004123FA54123A0133FA5400237B647E629D
:1031D0007D857B637B8D9BB2FF2B0CD9FF233B85C9
:1031E00090239B01009380235B04EF320399380006
:1031F000FFF75EFD20E07A8D92B23A85D2B290233D
:103200009B01009380239B0403993800FFF750FD36
:1032100012E07B6C042B01D00320B6E70120B4E759
:103220007A8D92B23A85D2B20023009380239B0418
:1032300003993800FFF73CFD7B8D9BB2002B33D008
:1032400022000A993800FFF737FE0028E1D17B6A97
:103250005A1C7A623A68526A1A703B8D013B9BB2E3
:103260003B857A8D013A92B27A85002BE4D17B8D31
:103270009BB2002BE0D000940A9B002280213800F2
:10328000FFF78DFD00282DD17B8D9BB2FF2BC7D979
:10329000FF233B850023009380235B04FF220399D7
:1032A0003800FFF705FDC7E722000A993800FFF74D
:1032B000DCFD002806D07B6C042B01D0032064E7E2
:1032C000012062E73B682022DA6139684B68064CCE
:1032D00023404B604123FA5400232232BB54023A6C
:1032E000BB5452E7032050E700E800FEF0B587B07A
:1032F00007000C00039204930CAB40CB1D884123C4
:10330000C35C202B02D0022007B0F0BD002E00D1FC
:10331000C5E0002D00D1C4E02033C35C012B01D1F6
:103320000220F1E701224023C254FFF767F805901D
:10333000009019230122802109023800FFF72FFD98
:10334000002801D00320DFE721224123FA541F3255
:103350000133FA5400237B647E627D857B63059B89
:1033600001930E9B0093049B039A21003800FFF702
:103370003AFD00280CD07B6C042B04D000224023A3
:10338000FA540320C0E700223C33FA540120BBE783
:103390007B8D9BB2FF2B0BD9FF233B850023009332
:1033A00080235B04FF2221003800FFF781FC23E02B
:1033B0007A8D92B23A85D2B20023009380239B0487
:1033C00021003800FFF774FC16E07B6C042B01D061
:1033D000032099E7012097E77A8D92B23A85D2B21D
:1033E0000023009380239B0421003800FFF760FC3A
:1033F0007B8D9BB2002B34D0059A0E993800FFF7D5
:10340000A5FC0028E1D13A687B6A591C79621B78D7
:1034100093627B8D013B9BB27B853B8D013B9BB2D5
:103420003B85002BE4D17B8D9BB2002BE0D0059B2C
:1034300000930E9B002280213800FFF7B0FC00288B
:1034400031D17B8D9BB2FF2BC6D9FF233B85002357
:10345000009380235B04FF2221003800FFF728FC43
:10346000C6E7059A0E993800FFF7FFFC002806D042
:103470007B6C042B01D0032046E7012044E73B6826
:103480002022DA6139684B68084C23404B604123A5
:10349000FA5400232232BB54023ABB5434E70120D1
:1034A00032E7012030E703202EE7C04600E800FEA7
:1034B000F0B54123C35C202B01D00220F0BD2033A6
:1034C000C35C012B1CD0402401220255412524233A
:1034D0004355066833689343336006683368094F81
:1034E0003B403360066833681943316001680B68FC
:1034F00013430B6020234355002303550020DDE7D1
:103500000220DBE7FFEFFFFFF0B54123C35C202B78
:1035100001D00220F0BD2033C35C012B1AD040241F
:1035200001220255412524234355066833689343FD
:10353000336006683368084F3B4009021943316025
:1035400001680B6813430B60202343550023035588
:103550000020DFE70220DDE7FFF0FFFF70B582B05B
:1035600004000368DB0736D5C14B5A680C231340AF
:10357000042B28D0BE4B5A680C231340082B1ED0B6
:103580006368012B4BD0002B50D1B94B1A68B94955
:103590000A401A601A68B8490A401A606368002B2A
:1035A0005CD0FEF72BFF0500B14B1B689B0312D4C8
:1035B000FEF724FF401B6428F6D90320EAE1AC4B58
:1035C0005B68DB03DCD5AA4B1B689B0303D56368F0
:1035D000002B00D1DBE123689B0762D5A44B5B681D
:1035E0000C221A424CD0A24B5A680C231340082BD1
:1035F00042D0E368002B76D09D4A136801210B432B
:103600001360FEF7FBFE0500994B1B689B0761D416
:10361000FEF7F4FE401B0228F6D90320BAE1944AD3
:10362000116880235B020B431360B7E7052B09D0B9
:103630008F4B1A688F490A401A601A688E490A40EF
:103640001A60ABE78A4B19688022D2020A431A60DB
:103650001968802252020A431A609FE7FEF7CEFEE5
:103660000500834B1B689B03B5D5FEF7C7FE401BC7
:103670006428F6D903208DE17D4B5B68DB03B8D469
:103680007B4B1B689B0704D5E368012B01D001200D
:1036900080E177490B68F82293432269D2001343F3
:1036A0000B6023681B0744D5E369002B2ED0704ABA
:1036B000536A01210B435362FEF7A0FE05006C4BD9
:1036C0005B6A9B0735D4FEF799FE401B0228F6D9AA
:1036D00003205FE166490B68F82293432269D20018
:1036E00013430B60DDE7624A136801218B431360CB
:1036F000FEF784FE05005E4B1B689B07D1D5FEF7E5
:103700007DFE401B0228F6D9032043E1584A536A44
:1037100001218B435362FEF771FE0500544B5B6A37
:103720009B0706D5FEF76AFE401B0228F6D9032048
:1037300030E123685B0775D54D4BDB69DB002ED488
:103740004B4AD169802040050143D161D3690340D0
:103750000193019B0125494B1B68DB0521D5A3681B
:10376000012B32D0002B36D1414B1A6A01218A43FA
:103770001A621A6A03318A431A62A368002B40D086
:10378000FEF73CFE06003A4B1B6A9B0748D4FEF747
:1037900035FE801B3A4B9842F5D90320FAE000250C
:1037A000D9E7364A116880235B000B431360FEF7AC
:1037B00025FE0600314B1B68DB05D0D4FEF71EFE4C
:1037C000801B6428F6D90320E4E0294A136A01210A
:1037D0000B431362D1E7052B09D0254B1A6A01214F
:1037E0008A431A621A6A03318A431A62C5E7204B78
:1037F0001A6A04210A431A621A6A03390A431A62CE
:10380000BBE7FEF7FBFD0600194B1B6A9B0707D5BC
:10381000FEF7F4FD801B1A4B9842F5D90320B9E05E
:10382000012D1ED02368DB065AD56369012B2BD0EE
:10383000053349D00E4B5A6B04210A435A635A6B25
:1038400003398A435A63FEF7D9FD0500084B5B6BC9
:103850009B0745D5FEF7D2FD401B0228F6D9032071
:1038600098E0034AD36907490B40D361DAE7C046C1
:1038700000100240FFFFFEFFFFFFFBFF0070004053
:1038800088130000FFFFFFEF444B5A6B04210A43EB
:103890005A635A6B03390A435A63FEF7AFFD0500BA
:1038A0003E4B5B6B9B0706D4FEF7A8FD401B02282E
:1038B000F6D903206EE039494B6BF8229343A26995
:1038C000D20013434B630BE0344A536B04218B4308
:1038D0005363536BF4318B43A169C9000B435363AA
:1038E000236A002B55D02D4A51680C220A40082A21
:1038F00052D0022B12D0294A136829490B40136079
:10390000FEF77CFD0400254B1B689B013DD5FEF7AF
:1039100075FD001B0228F6D903203BE01F4A1368FF
:103920001F490B401360FEF769FD05001B4B1B6828
:103930009B0106D5FEF762FD401B0228F6D9032045
:1039400028E0164BDA6A0F218A43E16A0A43DA62F9
:103950005A6814490A40A16A606A01430A435A60DE
:103960001968802252040A431A60FEF747FD0400DA
:103970000A4B1B689B0106D4FEF740FD001B022882
:10398000F6D9032006E0002004E0002002E0012038
:1039900000E0002002B070BD0120FBE700100240F3
:1039A000FFFFFFFEFFFFC2FF30B589B004AA154B31
:1039B000180032C832C2110002680A606A46103329
:1039C00013CB13C21B6813600F4B5A680C231340B0
:1039D000082B13D1910C0733194004A8445C0A4901
:1039E000C96A0B406946C95CD30302D407486043E7
:1039F00005E00748FCF794FB604300E0044809B089
:103A000030BDC046687300080010024000093D0048
:103A100000127A0070B505000C004D4B1A680123A6
:103A200013408B420BD24A490B6801229343234334
:103A30000B600B681A40944201D0012085E02B688E
:103A40009B0706D5434A5368F0218B43A9680B4373
:103A500053602B68DB074CD56B68012B21D0022B00
:103A600025D03C4A1268920700D46FE039494A6871
:103A70000320824313434B60FEF7C0FC06006B68D3
:103A8000012B1AD0022B26D0324B5B680C221A4233
:103A90002FD0FEF7B3FC801B2F4B9842F4D90320A4
:103AA00053E02C4A12689203E0D401204DE0294AE9
:103AB00012689201DAD4012047E0264B5A680C23A1
:103AC0001340042B15D0FEF799FC801B224B984223
:103AD000F3D9032039E01F4B5A680C231340082BFD
:103AE00007D0FEF78BFC801B1B4B9842F3D90320B9
:103AF0002BE0174B1A68012313409C420BD2144948
:103B00000B680122934323430B600B681A409442D5
:103B100001D0012019E02B685B0706D50D4A5368D8
:103B20000E490B40E9680B435360FFF73DFF094B1B
:103B30005A6812090F231340094AD35CD840094B35
:103B40001860002001F06CFD002070BD0120FCE732
:103B5000002002400010024088130000FFF8FFFF21
:103B6000C49B00081C000020014B18687047C04629
:103B70001C00002010B5FFF7F7FF044B5A68120A2B
:103B800007231340024AD35CD84010BD0010024006
:103B9000D49B000810B5072303600A4B5C6803221E
:103BA000224042605C68F022224082605B68E02232
:103BB000D2001340C360044B1A68012313400B600A
:103BC00010BDC046001002400020024070B582B017
:103BD00004000368DB0335D53C4BDB69DB0048D4CC
:103BE0003A4AD169802040050143D161D36903403D
:103BF0000193019B0125364B1B68DB053BD5334BFD
:103C00001B6AC0229200134013D061680A4093429D
:103C10000FD02E4B186A2F4A02401E6A802149029B
:103C200031431962196A2C4E314019621A62C30776
:103C300035D4264A136A27490B4061680B43136247
:103C4000012D3BD02368DB0706D5204A136B0321E7
:103C50008B43A1680B43136323689B0633D51B4A30
:103C6000136B10218B43E1680B431363002002B0F8
:103C700070BD0025BFE7164A116880235B000B4327
:103C80001360FEF7BBFB0600114B1B68DB05B6D4C7
:103C9000FEF7B4FB801B6428F6D90320E7E7FEF7A4
:103CA000ADFB0600094B1B6A9B07C2D4FEF7A6FBBF
:103CB000801B0A4B9842F5D90320D8E7D3690849FD
:103CC0000B40D361BEE70020D1E7C04600100240A0
:103CD00000700040FFFCFFFFFFFFFEFF88130000A5
:103CE000FFFFFFEF0368DA6801210A43DA60026828
:103CF00013680B431360002070477047704770478C
:103D0000704710B5040003681A6992070FD5DA6886
:103D100092070CD5032252421A61012303770368EC
:103D20009B699B0763D0FFF7E9FF00232377236894
:103D30001A69520712D5DA6852070FD50522524286
:103D40001A610223237723689A69C0239B001A42D1
:103D500053D02000FFF7D2FF0023237723681A698E
:103D6000120710D5DA6812070DD5092252421A61DE
:103D7000042323772368DB699B0745D02000FFF7E6
:103D8000BDFF0023237723681A69D20612D5DA68AB
:103D9000D2060FD5112252421A61082323772368D5
:103DA000DA69C0239B001A4235D02000FFF7A6FF36
:103DB0000023237723681A69D20702D5DA68D2076D
:103DC00030D423681A69120602D5DA68120630D494
:103DD00023681A69520602D5DA68520630D423687D
:103DE0001A69920602D5DA68920630D410BDFFF740
:103DF00084FF2000FFF783FF97E72000FFF77DFF98
:103E00002000FFF77CFFA7E72000FFF776FF2000E8
:103E1000FFF775FFB5E72000FFF76FFF2000FFF702
:103E20006EFFC5E7022252421A61200001F026F817
:103E3000C7E7812252421A61200000F074F8C7E7F8
:103E4000412252421A612000FFF75AFFC7E72122A0
:103E500052421A61200000F065F8C7E703681D4A66
:103E6000904232D01C4A90422FD01A4A90420ED033
:103E7000194A90420BD0194A904208D0184A9042F1
:103E800005D0184A904202D0174A904203D1174AEF
:103E90001340CA681343802293434A691343036063
:103EA0008B68C3620B6883620A4B984208D00C4B44
:103EB000984205D00B4B984202D00B4B984201D14F
:103EC0000B690363012343617047702293434A687F
:103ED0001343CAE7002C01400004004000200040CA
:103EE000004001400044014000480140FFFCFFFF4A
:103EF00070B5041E14D03D23C35C002B0AD03D25B1
:103F000002236355211D2068FFF7A8FF0123635595
:103F1000002070BD00223C33C25401F025FBEEE7C7
:103F20000120F6E77047704770B5040083680269A6
:103F3000134342691343C269134301680A685F4827
:103F4000024013430B60226853685D490B40E168EF
:103F50000B435360A369226A134321688A68594856
:103F6000024013438B602568574B9D4220D0574B2E
:103F70009D4231D0102380221202E16991422FD05C
:103F8000022B00D17FE000D86FE0042B00D186E047
:103F9000082B00D08FE06168480880231B029C46F4
:103FA0006044FCF7BDF80004000CE860002041E02C
:103FB000474B1A6B03231340012B09D0002B05D06C
:103FC000022B07D0032B09D01023D4E70023D2E71C
:103FD0000423D0E70823CEE70023CCE70223CAE777
:103FE000022B28D00FD9042B30D0082B3AD163688C
:103FF000580880235B029C4660446168FCF790F897
:1040000083B200200CE0002B2CD1FFF7B3FD400061
:1040100063685B08C0186168FCF782F883B200200F
:104020000F22190091430A005B1007210B40134334
:104030002268D36070BD63685808264B9C46604474
:104040006168FCF76DF883B20020E9E7FFF7ACFC8C
:10405000400063685B08C0186168FCF761F883B2D0
:104060000020DDE701200023DAE7002B23D1FFF752
:1040700081FD61684B08C018FCF752F80004000C81
:10408000E8600020D6E761684808134B9C4660440E
:10409000FCF746F80004000CE8600020CAE7FFF7D0
:1040A00083FC61684B08C018FCF73AF80004000C68
:1040B000E8600020BEE70120BCE7C046F369FFFFCF
:1040C000FFCFFFFFFFF4FFFF003801400044004036
:1040D000001002400024F40000127A00436ADB075B
:1040E00006D5026853682C490B40816A0B43536024
:1040F000436A9B0706D50268536828490B40C16A8A
:104100000B435360436A5B0706D502685368244932
:104110000B40016B0B435360436A1B0706D50268D3
:10412000536820490B40416B0B435360436ADB06E5
:1041300006D5026893681C490B40816B0B43936062
:10414000436A9B0606D50268936818490B40C16B09
:104150000B439360436A5B060BD5026853681449AE
:104160000B40016C0B43536080235B03026C9A424B
:104170000AD0436A1B0606D5026853680D490B40F6
:10418000816C0B4353607047026853680A490B40C7
:10419000416C0B435360ECE7FFFFFDFFFFFFFEFFA9
:1041A000FFFFFBFFFF7FFFFFFFEFFFFFFFDFFFFFD3
:1041B000FFFFEFFFFFFFF7FFFFFF9FFF0023C36637
:1041C0002022692142540131425448328354002054
:1041D0007047000010B5041E30D06923C35C002B6B
:1041E00022D024226923E2542268136801218B43E0
:1041F00013602000FFF798FE012814D0636A002B9B
:1042000018D1226853680E490B40536022689368A6
:1042100008218B4393602268136807390B431360AE
:104220002000FFF7CBFF10BD00226833C25401F01D
:10423000B1F9D6E72000FFF751FFE2E70120F2E7EE
:10424000FFF7FFFF842801D0033070470020FCE710
:1042500010B500F0B3F9002010BDF0B585B00D0029
:104260004668076804690823C05EFFF7EBFFA2B247
:1042700003AB019300902B003900300000F06EF981
:10428000012802D1039805B0F0BD0020FBE710B56E
:10429000002800D1013000F0AFFA002010BD10B5A9
:1042A00000F038FB012801D000F0D4FB10BD030062
:1042B00008334360012252428260C36003610023DD
:1042C0000360704700230361704743684B609A683E
:1042D0008A609A68516099600861036801330360DD
:1042E000704730B50C68631C02D00200083202E04F
:1042F000026904E01A0053681D68AC42FAD25368A0
:104300004B6099608A605160086103680133036003
:1043100030BD03694268816891608268416851607C
:104320005A68904205D0002202611A68501E186037
:10433000704782685A60F6E70A4B9B6A1B68002B3D
:1043400009D10133002B08D1064B9A6AD268D26892
:104350005268DA6270470023F4E701225242014BAF
:10436000DA62F7E70C02002010B50400006B00F0E1
:1043700065FC200000F062FC10BD0000F0B583B0C9
:1043800000900193089C0A9E1D4B9C46624492003B
:10439000336B9C46624407239A43170000230F2B7C
:1043A00009D8C8180578F218343215700278002A36
:1043B00001D00133F3E700224323F254062C00D945
:1043C0000624F46274640025B564301DFFF77AFF9B
:1043D00030001830FFF776FF366107231C1BB461ED
:1043E0007662F5644933F554019A0099380000F07B
:1043F000C9FA3060099B002B00D01E6003B0F0BDED
:10440000FFFFFF3FF8B5002408E0A3001B199A0046
:10441000104830308018FFF74AFF0134062CF4D9D9
:104420000D4C27003C373800FFF741FF260050367F
:104430003000FFF73CFF074D28001430FFF737FF2F
:1044400020006430FFF733FF2800FFF730FFAF6232
:10445000A667F8BD0C0200208C02002010B50400F5
:1044600000F0AEFA1F4AD36F0133D3671E4B1B68AF
:10447000002B2BD01C4B5B68002B07D11A4B1B6801
:10448000DB6AE26A934201D8174B1C60164B9A68AC
:1044900001329A60E26ADB689A4201D9124BDA6013
:1044A000211D93009B189A00104830308018FFF7A8
:1044B0000CFF00F091FA0C4B5B68002B05D00A4B07
:1044C0001B68DA6AE36A9A4208D310BD064B1C6087
:1044D000D36F012BDAD1FFF795FFD7E700F064FA2D
:1044E000F3E7C0468C0200200C0300200C020020E1
:1044F00070B504000D00164B1E6918680430FFF7F4
:1045000008FF631C12D03419114B1B685C60A64273
:1045100015D8104DA86A0E4B19680431FFF7E1FE5B
:10452000EB6A9C4212D20B4BDC620FE0002DEAD00A
:10453000074B196804310748FFF7C7FE06E0064B32
:10454000986F034B19680431FFF7CBFE70BDC0466E
:104550000C0300200C0200208C020020F0B587B074
:104560000490059114001F00900000F003FB061E4C
:104570001ED0542000F0FEFA051E15D00663002D53
:1045800018D00023039302950D9B01930C9B00937D
:104590003B00220005990498FFF7F0FE2800FFF782
:1045A0005DFF012007B0F0BD300000F047FBE6E7FB
:1045B0000025E4E701204042F4E7000000B583B0A5
:1045C0000F4B1C3301930023009380220D490E48AA
:1045D000FFF7C4FF012803D0431C0ED003B000BD79
:1045E00072B601225242094BDA62054B02325A601E
:1045F00000221A6100F054FAF0E772B6FEE7C046F6
:104600000C0300209C9C00087D4800080C02002040
:10461000024A9369013393617047C0460C0300203E
:10462000F8B53C4B9B69002B68D13A4B1D690135AD
:104630001D61002D12D1384B9B6A1B68002B01D0E5
:1046400072B6FEE7344A916A344B986F906299676C
:10465000304A136A01331362FFF76EFE2E4BDB6A9A
:104660009D423FD200242B4B1B68DA6A93009B18B3
:104670009A00294B9B181B6B012B44D9012442E063
:104680000124254B9B6A1B68002B2DD00023002B97
:104690002CD1214B9B6ADB68DE6873689D422AD36C
:1046A000371D3800FFF735FEB36A002B03D030000A
:1046B0001830FFF72EFEF26A164BDB689A4201D9DA
:1046C000144BDA6093009B189A001348303080181E
:1046D0003900FFF7FAFDF26A0E4B1B68DB6A9A425B
:1046E000CED2CEE70024CCE70133D0E701225242FC
:1046F000094BDA62B7E7084AD362B4E7054A536A5E
:10470000013353620024034B9B6A002B00D0012429
:104710002000F8BD0C0300200C0200208C020020B9
:1047200070B5324B9B69002B01D172B6FEE700F0E9
:1047300047F92E4B9A69013A9A619B69002B51D136
:104740002B4BDB6F002B04D1002400F045F9200037
:1047500070BD0024274B5B69002B24D0254B1B6ABE
:10476000DC6820001830FFF7D4FD251D2800FFF776
:10477000D0FDE26A1D4BDB689A4201D91B4BDA601F
:1047800093009B189A001B48303080182900FFF7CF
:104790009CFD164B1B68DB6AE26A9A42DAD301225F
:1047A000124B9A62D6E7002C01D0FFF7C5FD0F4BE4
:1047B0005C6A002C0AD10D4B9B6A002B14D000F0D0
:1047C000F3F80124C1E7013C002C07D0FFF728FFD4
:1047D0000028F8D00122054B9A62F4E70022034B2F
:1047E0005A62E8E70024B0E70024AEE70C0300209B
:1047F0008C0200200C02002010B5041E0ED00A4BC3
:104800009B69002B01D072B6FEE7FFF701FF002184
:104810002000FFF76DFEFFF783FF00E00020002877
:1048200001D100F0C1F810BD0C03002070B5114B90
:104830005B69002B1CD0FFF7EBFE0F4B5C6EFFF7A4
:104840006FFF002CF3D000F0BBF80B4C236FDD683A
:10485000281DFFF75EFDE36F013BE367054A5369DF
:10486000013B536100F0B8F82800FFF77DFDDEE75B
:1048700070BDC0460C0300208C02002010B5FFF76D
:10488000D5FF034B1B6B012BF9D900F08DF8F6E730
:104890000C02002010B51D4B9B69002B0FD11B4B48
:1048A00000229A62DB689A00D2189100184A5218C6
:1048B000126B002A09D1002B05D0013BF3E701223E
:1048C000124B9A6210BD72B6FEE7114A9900CC18DD
:1048D000A0001018446B646844633032C918880023
:1048E0000830121894420AD09A00D2189100084A4F
:1048F0005218526BD168054A1160D360E2E76068D4
:104900008900034A52185063EEE7C0460C030020AA
:104910000C020020064B5B68002B05D0044B9B6902
:10492000002B03D1022070470120FCE70020FAE7AA
:104930000C030020034B1B68013301D072B6FEE765
:1049400072B6FEE70000002000000000000000003A
:104950000B4A13681868203080F30988022080F31E
:104960001488BFF36F8F3FBCAE4608BC04BC62B670
:104970001847C046C046C046C046C046C046C046AE
:104980000C03002010B5031F802464041C60043B4A
:104990001960043B02491960143B1A60403810BD8D
:1049A000354900087047000080225205034B1A6009
:1049B000BFF34F8FBFF36F8F7047C04604ED00E029
:1049C00072B6044A136801331360BFF34F8FBFF30D
:1049D0006F8F704700000020064B1B68002B01D131
:1049E00072B6FEE7013B034A1360002B00D162B6AA
:1049F0007047C04600000020EFF3108072B6704789
:104A0000002080F3108870470000000000000000C4
:104A1000EFF309800E4B1A6820381060F0C044464E
:104A20004D4656465F46F0C008B572B6FFF732FFF6
:104A300062B60CBC116808681030F0C8A046A946E0
:104A4000B246BB4680F309882038F0C81847C046F4
:104A50000C03002010B5FFF7CFFF0400FFF7E0FDC7
:104A6000002803D080225205024B1A602000FFF775
:104A7000C8FF10BD04ED00E010B5064B1868FA2120
:104A80008900FBF74DFB0138034B18600722034BED
:104A90001A6010BD1C00002014E000E010E000E0EF
:104AA00010B50A4B1968FF2212040A431A601968EC
:104AB000FF2212060A431A60FFF7DEFF0022044BB2
:104AC0001A60FFF745FFFFF735FFC04620ED00E015
:104AD0000000002010B5114A53071BD0D11D072339
:104AE0009943C0231B015B1A9B180A000C490A60FA
:104AF00000204860D318083B0724A3438B6058600C
:104B00001860981A50601360C860086180231B0603
:104B10004B6110BDC0231B01E8E7C04638030020ED
:104B2000380F002010B5124B1A68824219D3596809
:104B30005C18A04203D14068091859601800416808
:104B40004418A24211D10A4CA468A2420BD0526868
:104B5000891841601A6812680260984200D0186093
:104B600010BD1300E0E70460F7E70260F5E7C04618
:104B7000380F002070B50400FFF74AFD2E4B9B68EC
:104B8000002B0FD02C4B5B6923424AD1002C0CD058
:104B90000834630709D007239C430834234204D018
:104BA00072B6FEE7FFF796FFECE7002C3BD0224BF6
:104BB0001B699C4239D8204B1D6801E02B00150071
:104BC0006A68944202D92A68002AF7D11A4A926880
:104BD00095422CD01E6808362A681A606B681B1B29
:104BE000102B08D92819420701D072B6FEE743609E
:104BF0006C60FFF797FF69680F4A13695B1A1361CE
:104C0000D268934201D20C4AD3600B4B5B690B43D1
:104C10006B6000232B60FFF783FD730709D072B62A
:104C2000FEE70026F7E70026F5E70026F3E7002673
:104C3000F1E7300070BDC046380F002070B5002885
:104C400020D00500083D6B680F4A52691A4201D115
:104C500072B6FEE7010008390968002901D072B672
:104C6000FEE70838040093434360FFF7D1FC636814
:104C7000054A11698C46634413612800FFF752FF0F
:104C8000FFF74EFD70BDC046380F002084B00F4BBB
:104C9000596980200003014359615A690240019219
:104CA000019A596980208002014359615A69024082
:104CB0000292029A5A698021C9020A435A615B69C9
:104CC0000B400393039B04B07047C04600100240A2
:104CD00010B50120FFF7DBFAFBE70000F0B597B055
:104CE00024E008AB574A03CA03C3190013880B809A
:104CF00093788B7094E008AB534A03CA03C319003E
:104D000013780B7092E0514C01232168626808A867
:104D100000F064FB14214B2000F076FB0123216896
:104D2000626801A800F05AFB00F0ACFA002000F025
:104D300097FAF52000F060FAFCF754F90022444B92
:104D4000FBF7BAFB0022434BFBF7B6FB0022424BBA
:104D5000FBF732FEFCF788F9071CF32000F04CFA51
:104D6000FCF740F93D4A3E4BFBF7A6FB0022394BCE
:104D7000FBF7A2FB3B4A3C4BFBF71EFEFCF774F92A
:104D80003A49FBF759FA0FACFBF776FB0A222100F0
:104D900000F026FDA378E3702C26A67000210020E9
:104DA00000F032FB294D012329686A68200000F0D9
:104DB00015FB2E49381CFBF73FFAFBF75DFB0A2277
:104DC000210000F00DFDA378E370A6700A210020F9
:104DD00000F01AFB012329686A68200000F0FEFA3F
:104DE0000020FFF754FA224D2800FDF79FFC6421B4
:104DF0002800FDF7EDFC2800FDF74AFD040028001F
:104E0000FDF7C4FC0A2201A9200000F0E9FC1421EE
:104E1000002000F0F9FAC8239B009C4200D960E70B
:104E2000144A2300653B934200D864E7632C00D901
:104E300069E708AB104A03CA03C3190013780B7063
:104E400061E7C046A49C0008B09C00081400002044
:104E500000405F400000F03E00001840D7A3703DC6
:104E60000AF76540CDCCCCCCCC6C4740000020414B
:104E70004C130020BA020000BC9C000810B5026868
:104E8000034B9A4200D010BDFDF7B0FAFBE7C046D5
:104E9000002C0140FEE7000010B51748174B0360D7
:104EA000174B4360002383600122C26003614361AA
:104EB0008361C3610362FEF73BF800280CD1002137
:104EC0000D48FEF7F5FA00280BD100210A48FEF73D
:104ED0001BFB00280AD110BD5221FF310948FFF702
:104EE000D9FFAC2149000748FFF7D4FF6021FF310B
:104EF0000448FFF7CFFFC0466C110020005400406B
:104F00000E090020C89C000810B51748174B036015
:104F1000174B4360002383600122C2600361436139
:104F20008361C3610362FEF703F800280CD10021FE
:104F30000D48FEF7BDFA00280BD100210A48FEF704
:104F4000E3FA00280AD110BD7421FF310948FFF7A8
:104F5000A1FFBD2149000748FFF79CFF8221FF31D7
:104F60000448FFF797FFC046DC11002000580040BE
:104F70000E090020C89C000810B50D480D4B0360B9
:104F8000E1235B02436000238360C36003610C2262
:104F900042618361C36103624362FFF71BF900282A
:104FA00000D110BDD32149000348FFF773FFC0466D
:104FB0002C12002000380140C89C000810B50D4894
:104FC0000D4B036096231B02436000238360C36084
:104FD00003610C2242618361C36103624362FFF794
:104FE000F9F8002800D110BDBC21FF310348FFF7BC
:104FF00051FFC046DC12002000440040C89C00085D
:1050000010B50F480F4B03600023037143714361D8
:10501000836101330362FDF741FD002805D1084893
:10502000FDF76DFD002805D110BD9C214900064803
:10503000FFF730FF3E21FF310348FFF72BFFC0464B
:10504000B811002000300240C89C000810B5094883
:10505000094B0360002343608360C3608361FEF7F4
:1050600047FF002800D110BD9221FF310348FFF710
:1050700011FFC0469C12002000100040C89C000890
:1050800000B585B019481A4B036000234360836064
:10509000C36001220261042141618361C361036233
:1050A0004362C221FF318162C36203634263FDF741
:1050B00077FA00280FD10B23019380235B01029321
:1050C00080235B05039301A90848FDF7E5FB002851
:1050D00006D105B000BD1E21FF310648FFF7DAFEFC
:1050E0002821FF310348FFF7D5FEC0464C130020AE
:1050F00000240140C89C000800B595B01223089315
:10510000113B0B930D930F330C930E9300231093CD
:1051100008A8FEF723FA002828D1072304930023C8
:10512000059306930793002104A8FEF773FC00285B
:1051300020D1212300930023029303936846FEF7B6
:1051400045FD00281AD1FEF70FFDFA218900FAF774
:10515000E7FFFDF777FC0420FDF790FC0022032118
:1051600001204042FDF732FC15B000BDE1210548A9
:10517000FFF790FEEE210348FFF78CFEF621014871
:10518000FFF788FEC89C000870B58AB0FDF71EF9CD
:10519000FFF7B2FFFFF77AFDFFF77EFEFFF7B4FEE1
:1051A000FFF7EAFEFFF70AFFFFF72AFFFFF74EFFC0
:1051B000FFF766FF05A80D4C0300220062CA62C318
:1051C00022CA22C30021FFF748F8094B186068463D
:1051D0006A4614342ACC2AC20ACC0AC20021FFF73C
:1051E0003CF8044B1860FFF733F8FEE79C9B00087F
:1051F000681100202812002070B586B00F226A4482
:1052000010700C4D64260096012380212800FDF7C4
:10521000F5FE1920FFF73BF805AC009602232200AB
:1052200080212800FDF7A6FF23781B026078184331
:1052300006B070BD6C11002000B587B017236B4419
:1052400018700A220292093A019200930123002267
:1052500078210248FEF74AF807B000BD6C11002023
:10526000002303E0FF21054AD1540133044A93424D
:1052700003D80028F6D10021F5E77047500F002031
:10528000FF01000010B584B000241AE0200050385F
:10529000C0B2FFF7D1FF0020FFF7CEFF1020FFF7CD
:1052A000CBFFE201642302931C330193074B9B184D
:1052B00000930123402278210548FEF717F80134B6
:1052C000E4B2072CE2D904B010BDC046500F002054
:1052D0006C11002043B2002B15DB1F2913D8104B93
:1052E0001B79002B02D053425A41D2B2012A0BD073
:1052F000CB08DB0118180723194001228A4009490D
:105300000B5C93430B547047CB08DB011818072341
:1053100019408A4003490B5C13430B54F3E7C04622
:1053200050110020500F0020F0B5DE4657464E4683
:105330004546E0B583B08146009101929846264BE0
:105340001B88CEB29B197F2B3CDC234B5B886A46C3
:1053500052789246934653441F2B3BDC00251FE0B6
:105360001D4B18885988424653425A41D2B24919B6
:10537000C9B20019C0B2FFF7ADFF0134B4420ED27A
:105380003B00A3401B04EBD5134B188859884919DF
:10539000C9B20019C0B24246FFF79CFFEDE70135E4
:1053A000554509D24B46203B5A465343EB185B0008
:1053B000019A9F5A0024E1E7074B1A88B6181E800D
:1053C000484600E0002003B03CBC90469946A24607
:1053D000AB46F0BD0020F6E75011002030B583B099
:1053E0000400009101921D00207800280AD02B00B3
:1053F0000099019AFFF798FF03002078834201D1BA
:105400000134F1E703B030BD014B1880598070477B
:105410005011002000B583B0124B9969012211434D
:10542000996199690A400092009ADA6980214905D8
:105430000A43DA61DB690B400193019B00220021E2
:1054400005204042FDF7C2FA00220321022040421B
:10545000FDF7BCFA0022032101204042FDF7B6FA15
:1054600003B000BD0010024000B587B002680D4BCC
:105470009A4201D007B000BD0B4A9169802080009C
:1054800001439161936903400093009B02230193C0
:10549000013302930023039301A90448FDF732FB73
:1054A000E8E7C04600240140001002400008004820
:1054B00082B00268074B9A4201D002B07047064A98
:1054C0005169402319435161526913400193019B73
:1054D000F3E7C046003002400010024000B589B03A
:1054E00003681D4A934204D01C4A93421AD009B063
:1054F00000BDC0239B00039312230493113B05932B
:1055000003220692079303A91548FDF7FBFA154AF3
:10551000D169802080030143D161D36903400193A5
:10552000019BE4E7C0231B01039312230493113B67
:10553000059303220692079303A90948FDF7E2FAAF
:10554000084AD1698020C0030143D161D369034077
:105550000293029BCBE7C046005400400058004035
:10556000000400480010024082B00268074B9A42D3
:1055700001D002B07047064AD16910231943D161A6
:10558000D26913400193019BF3E7C046001000402D
:105590000010024000B589B003681E4A934204D04F
:1055A0001D4A93421CD009B000BD1C4A916980205D
:1055B000C00101439161936903400193019BC023A2
:1055C000DB00039302230493002305930333069324
:1055D000023B079303A99020C005FDF793FAE2E789
:1055E0000E4AD169802080020143D161D369034012
:1055F0000293029B0C2303930A3B0493002305931D
:1056000003330693023B079303A99020C005FDF7DF
:1056100079FAC8E700380140004400400010024019
:1056200000B587B0010000220D20FDF7CFF90D2055
:10563000FDF7FEF9134A9169802000010143916151
:10564000936903400093009B01A902A8FEF7A2FA08
:10565000FEF790FA0C49FAF763FD431E0B480C4A1B
:1056600002600C4AC2604360002303618360FEF75E
:105670003FFC002802D0012007B000BD0348FEF720
:1056800031FBF9E70010024040420F009813002060
:10569000002C0140E70300007047FEE710B5FEF75D
:1056A000FEFD10BD10B50248FEF72BFB10BDC04635
:1056B00098130020114B1A6801210A431A605A6896
:1056C0000F4802405A601A680E4802401A601A6871
:1056D0000D4802401A605A680C4802405A60DA6A63
:1056E0000F208243DA621A6B094802401A635A6B30
:1056F0008A435A6300229A607047C04600100240F5
:105700000CB8FF08FFFFF6FEFFFFFBFFFFFFC0FF27
:10571000ECFEFFFF0D4885460D480E490E4A00235A
:1057200002E0D458C4500433C4188C42F9D30B4A55
:105730000B4C002301E013600432A242FBD3FFF7BD
:10574000B9FF00F011F8FFF71FFDFEE70020002071
:1057500000000020F0010020409F0008F001002020
:10576000DC130020FEE7000070B500260C4D0D4C48
:10577000641BA410A64209D1002601F0E7FD0A4DE2
:105780000A4C641BA410A64205D170BDB300EB58AF
:1057900098470136EEE7B300EB5898470136F2E739
:1057A000389F0008389F0008389F00083C9F000879
:1057B000931E10B50C00222B04D900231C000B7083
:1057C000200010BD0A2A09D1002807DA2D230B700A
:1057D00001214042611800F06FFBF1E70021F9E779
:1057E00010B5FFF7E5FF10BD002310B59A4200D1B8
:1057F00010BDCC5CC4540133F8E703008218934217
:1058000000D1704719700133F9E7F0B58BB014007F
:105810001D1E129953DA802424061B191D00140042
:105820002D230B702023149E03229E43462E07D067
:105830003300453B59424B411099013ACB18109324
:1058400009AB049308AB0393139B00920293109B44
:10585000220001932B0000F0EDFB0700472E02D140
:10586000119BDB0724D5109BFB180793462E14D100
:105870003B78302B0CD10022002320002900FBF7BD
:10588000A7FD002804D10123109A9B1A139A1360D4
:10589000139B079A1B68D31807930022002320004C
:1058A0002900FBF795FD302200280DD0079B0993B6
:1058B0003800099B159ADB1B13600BB0F0BD002369
:1058C000AFE7591C09911A70099B07999942F8D8BA
:1058D000EEE7F0B52B2385B007000C000270861CA4
:1058E000002901DA2D234C427B70092C23DD02AB09
:1058F000DD1D6B1E20000A210193FBF755FD6B1E79
:105900003031197020000A21FBF768FC04000928D7
:105910000ADC023D30342C7002AB07333000AB425E
:1059200004D8C01B05B0F0BD019DE2E72B7801351E
:1059300033700136F0E73023E4183370B01C747014
:10594000EFE70000F0B595B00C000A920B931A9D9A
:10595000099001F057F9036818000D93FBF72CFC30
:105960000023129323680E900C930C99277E2B68CA
:105970000722C90547D59B1893431A0008322A60AD
:105980001A685B68A264E3640122E56CA66C6B0094
:105990005B080F935242A74B30000F99FCF78AFC2B
:1059A000002800D006E20122A24B524230000F999B
:1059B000FBF71EFD002800D0FCE100220023300090
:1059C0002900FBF70BFD002803D023002D224333D1
:1059D0001A70994D472F00D8984D032300260C9A32
:1059E000236101339A4322600B9B13AA0093210089
:1059F0000A9B099800F0F2F9431C00D09CE00120BA
:105A0000404215B0F0BD0733B6E780236268DB0083
:105A1000511C45D1073262600C9A0021134312AA2F
:105A2000059211AA0392232223600691019308A9EB
:105A3000636852180292009332002B000497099871
:105A4000FFF7E3FE20233A0005009A43472A07D1D7
:105A5000119BDA1C02DB626893425BDD023FFFB2FE
:105A60001199652F3BD8200001393A00503011912F
:105A7000FFF72FFF129A060083182361012A02DC28
:105A80002268D20701D501332361232308AA9B187A
:105A90001B78002BA8D023002D2243331A70A3E7D4
:105AA000672F01D0472FB7D1002A16D00C9908A82C
:105AB0000B430021069112A9059111A903912321FD
:105AC00009182360019300922B0004970291320081
:105AD0000998FFF79AFE0500BAE701229BE7662FB7
